{
  "_format": "hh-sol-artifact-1",
  "contractName": "ColorToken",
  "sourceName": "contracts/ColorToken.sol",
  "abi": [
    {
      "inputs": [],
      "stateMutability": "nonpayable",
      "type": "constructor"
    },
    {
      "anonymous": false,
      "inputs": [
        {
          "indexed": true,
          "internalType": "address",
          "name": "owner",
          "type": "address"
        },
        {
          "indexed": true,
          "internalType": "address",
          "name": "approved",
          "type": "address"
        },
        {
          "indexed": true,
          "internalType": "uint256",
          "name": "tokenId",
          "type": "uint256"
        }
      ],
      "name": "Approval",
      "type": "event"
    },
    {
      "anonymous": false,
      "inputs": [
        {
          "indexed": true,
          "internalType": "address",
          "name": "owner",
          "type": "address"
        },
        {
          "indexed": true,
          "internalType": "address",
          "name": "operator",
          "type": "address"
        },
        {
          "indexed": false,
          "internalType": "bool",
          "name": "approved",
          "type": "bool"
        }
      ],
      "name": "ApprovalForAll",
      "type": "event"
    },
    {
      "anonymous": false,
      "inputs": [
        {
          "indexed": true,
          "internalType": "address",
          "name": "from",
          "type": "address"
        },
        {
          "indexed": true,
          "internalType": "address",
          "name": "to",
          "type": "address"
        },
        {
          "indexed": true,
          "internalType": "uint256",
          "name": "tokenId",
          "type": "uint256"
        }
      ],
      "name": "Transfer",
      "type": "event"
    },
    {
      "inputs": [
        {
          "internalType": "uint256",
          "name": "",
          "type": "uint256"
        }
      ],
      "name": "allColors",
      "outputs": [
        {
          "internalType": "uint256",
          "name": "tokenId",
          "type": "uint256"
        },
        {
          "internalType": "string",
          "name": "colorValue",
          "type": "string"
        },
        {
          "internalType": "address",
          "name": "owner",
          "type": "address"
        }
      ],
      "stateMutability": "view",
      "type": "function"
    },
    {
      "inputs": [
        {
          "internalType": "address",
          "name": "to",
          "type": "address"
        },
        {
          "internalType": "uint256",
          "name": "tokenId",
          "type": "uint256"
        }
      ],
      "name": "approve",
      "outputs": [],
      "stateMutability": "nonpayable",
      "type": "function"
    },
    {
      "inputs": [
        {
          "internalType": "address",
          "name": "owner",
          "type": "address"
        }
      ],
      "name": "balanceOf",
      "outputs": [
        {
          "internalType": "uint256",
          "name": "",
          "type": "uint256"
        }
      ],
      "stateMutability": "view",
      "type": "function"
    },
    {
      "inputs": [
        {
          "internalType": "string",
          "name": "",
          "type": "string"
        }
      ],
      "name": "colorExists",
      "outputs": [
        {
          "internalType": "bool",
          "name": "",
          "type": "bool"
        }
      ],
      "stateMutability": "view",
      "type": "function"
    },
    {
      "inputs": [
        {
          "internalType": "address",
          "name": "",
          "type": "address"
        },
        {
          "internalType": "uint256",
          "name": "",
          "type": "uint256"
        }
      ],
      "name": "colorsByAddr",
      "outputs": [
        {
          "internalType": "uint256",
          "name": "tokenId",
          "type": "uint256"
        },
        {
          "internalType": "string",
          "name": "colorValue",
          "type": "string"
        },
        {
          "internalType": "address",
          "name": "owner",
          "type": "address"
        }
      ],
      "stateMutability": "view",
      "type": "function"
    },
    {
      "inputs": [],
      "name": "getAllColors",
      "outputs": [
        {
          "components": [
            {
              "internalType": "uint256",
              "name": "tokenId",
              "type": "uint256"
            },
            {
              "internalType": "string",
              "name": "colorValue",
              "type": "string"
            },
            {
              "internalType": "address",
              "name": "owner",
              "type": "address"
            }
          ],
          "internalType": "struct ColorToken.Color[]",
          "name": "",
          "type": "tuple[]"
        }
      ],
      "stateMutability": "view",
      "type": "function"
    },
    {
      "inputs": [
        {
          "internalType": "uint256",
          "name": "tokenId",
          "type": "uint256"
        }
      ],
      "name": "getApproved",
      "outputs": [
        {
          "internalType": "address",
          "name": "",
          "type": "address"
        }
      ],
      "stateMutability": "view",
      "type": "function"
    },
    {
      "inputs": [],
      "name": "getMyColors",
      "outputs": [
        {
          "components": [
            {
              "internalType": "uint256",
              "name": "tokenId",
              "type": "uint256"
            },
            {
              "internalType": "string",
              "name": "colorValue",
              "type": "string"
            },
            {
              "internalType": "address",
              "name": "owner",
              "type": "address"
            }
          ],
          "internalType": "struct ColorToken.Color[]",
          "name": "",
          "type": "tuple[]"
        }
      ],
      "stateMutability": "view",
      "type": "function"
    },
    {
      "inputs": [
        {
          "internalType": "address",
          "name": "owner",
          "type": "address"
        },
        {
          "internalType": "address",
          "name": "operator",
          "type": "address"
        }
      ],
      "name": "isApprovedForAll",
      "outputs": [
        {
          "internalType": "bool",
          "name": "",
          "type": "bool"
        }
      ],
      "stateMutability": "view",
      "type": "function"
    },
    {
      "inputs": [
        {
          "internalType": "string",
          "name": "_colorValue",
          "type": "string"
        }
      ],
      "name": "mintColor",
      "outputs": [],
      "stateMutability": "payable",
      "type": "function"
    },
    {
      "inputs": [],
      "name": "name",
      "outputs": [
        {
          "internalType": "string",
          "name": "",
          "type": "string"
        }
      ],
      "stateMutability": "view",
      "type": "function"
    },
    {
      "inputs": [],
      "name": "owner",
      "outputs": [
        {
          "internalType": "address",
          "name": "",
          "type": "address"
        }
      ],
      "stateMutability": "view",
      "type": "function"
    },
    {
      "inputs": [
        {
          "internalType": "uint256",
          "name": "tokenId",
          "type": "uint256"
        }
      ],
      "name": "ownerOf",
      "outputs": [
        {
          "internalType": "address",
          "name": "",
          "type": "address"
        }
      ],
      "stateMutability": "view",
      "type": "function"
    },
    {
      "inputs": [
        {
          "internalType": "address",
          "name": "from",
          "type": "address"
        },
        {
          "internalType": "address",
          "name": "to",
          "type": "address"
        },
        {
          "internalType": "uint256",
          "name": "tokenId",
          "type": "uint256"
        }
      ],
      "name": "safeTransferFrom",
      "outputs": [],
      "stateMutability": "nonpayable",
      "type": "function"
    },
    {
      "inputs": [
        {
          "internalType": "address",
          "name": "from",
          "type": "address"
        },
        {
          "internalType": "address",
          "name": "to",
          "type": "address"
        },
        {
          "internalType": "uint256",
          "name": "tokenId",
          "type": "uint256"
        },
        {
          "internalType": "bytes",
          "name": "_data",
          "type": "bytes"
        }
      ],
      "name": "safeTransferFrom",
      "outputs": [],
      "stateMutability": "nonpayable",
      "type": "function"
    },
    {
      "inputs": [
        {
          "internalType": "address",
          "name": "operator",
          "type": "address"
        },
        {
          "internalType": "bool",
          "name": "approved",
          "type": "bool"
        }
      ],
      "name": "setApprovalForAll",
      "outputs": [],
      "stateMutability": "nonpayable",
      "type": "function"
    },
    {
      "inputs": [
        {
          "internalType": "bytes4",
          "name": "interfaceId",
          "type": "bytes4"
        }
      ],
      "name": "supportsInterface",
      "outputs": [
        {
          "internalType": "bool",
          "name": "",
          "type": "bool"
        }
      ],
      "stateMutability": "view",
      "type": "function"
    },
    {
      "inputs": [],
      "name": "symbol",
      "outputs": [
        {
          "internalType": "string",
          "name": "",
          "type": "string"
        }
      ],
      "stateMutability": "view",
      "type": "function"
    },
    {
      "inputs": [
        {
          "internalType": "uint256",
          "name": "tokenId",
          "type": "uint256"
        }
      ],
      "name": "tokenURI",
      "outputs": [
        {
          "internalType": "string",
          "name": "",
          "type": "string"
        }
      ],
      "stateMutability": "view",
      "type": "function"
    },
    {
      "inputs": [
        {
          "internalType": "address",
          "name": "from",
          "type": "address"
        },
        {
          "internalType": "address",
          "name": "to",
          "type": "address"
        },
        {
          "internalType": "uint256",
          "name": "tokenId",
          "type": "uint256"
        }
      ],
      "name": "transferFrom",
      "outputs": [],
      "stateMutability": "nonpayable",
      "type": "function"
    }
  ],
  "bytecode": "0x608060405260016006553480156200001657600080fd5b50604080518082018252600a81526921b7b637b92a37b5b2b760b11b60208083019182528351808501909452600484526310d3149560e21b908401528151919291620000659160009162000096565b5080516200007b90600190602084019062000096565b5050600780546001600160a01b031916331790555062000179565b828054620000a4906200013c565b90600052602060002090601f016020900481019282620000c8576000855562000113565b82601f10620000e357805160ff191683800117855562000113565b8280016001018555821562000113579182015b8281111562000113578251825591602001919060010190620000f6565b506200012192915062000125565b5090565b5b8082111562000121576000815560010162000126565b600181811c908216806200015157607f821691505b602082108114156200017357634e487b7160e01b600052602260045260246000fd5b50919050565b611d5f80620001896000396000f3fe60806040526004361061011f5760003560e01c80638d44807c116100a0578063b88d4fde11610064578063b88d4fde14610357578063c87b56dd14610377578063d096172214610397578063e0ac43d9146103ac578063e985e9c5146103cc5761011f565b80638d44807c146102b45780638da5cb5b146102ef57806395d89b411461030f57806397f01aa014610324578063a22cb465146103375761011f565b806323b872dd116100e757806323b872dd1461020457806335de7c621461022457806342842e0e146102465780636352211e1461026657806370a08231146102865761011f565b806301ffc9a71461012457806306fdde0314610159578063081812fc1461017b578063095ea7b3146101b357806312edf743146101d5575b600080fd5b34801561013057600080fd5b5061014461013f3660046118da565b610415565b60405190151581526020015b60405180910390f35b34801561016557600080fd5b5061016e610469565b6040516101509190611b0e565b34801561018757600080fd5b5061019b6101963660046119c5565b6104fb565b6040516001600160a01b039091168152602001610150565b3480156101bf57600080fd5b506101d36101ce3660046118b1565b610595565b005b3480156101e157600080fd5b506101f56101f03660046118b1565b6106ab565b60405161015093929190611bc4565b34801561021057600080fd5b506101d361021f3660046117c3565b610783565b34801561023057600080fd5b506102396107b4565b6040516101509190611a85565b34801561025257600080fd5b506101d36102613660046117c3565b6108c5565b34801561027257600080fd5b5061019b6102813660046119c5565b6108e0565b34801561029257600080fd5b506102a66102a1366004611777565b610957565b604051908152602001610150565b3480156102c057600080fd5b506101446102cf36600461197f565b8051602081830181018051600a8252928201919093012091525460ff1681565b3480156102fb57600080fd5b5060075461019b906001600160a01b031681565b34801561031b57600080fd5b5061016e6109de565b6101d3610332366004611912565b6109ed565b34801561034357600080fd5b506101d3610352366004611877565b610c24565b34801561036357600080fd5b506101d36103723660046117fe565b610cf6565b34801561038357600080fd5b5061016e6103923660046119c5565b610d2e565b3480156103a357600080fd5b50610239610e16565b3480156103b857600080fd5b506101f56103c73660046119c5565b610f29565b3480156103d857600080fd5b506101446103e7366004611791565b6001600160a01b03918216600090815260056020908152604080832093909416825291909152205460ff1690565b60006001600160e01b031982166380ac58cd60e01b148061044657506001600160e01b03198216635b5e139f60e01b145b8061046157506301ffc9a760e01b6001600160e01b03198316145b90505b919050565b60606000805461047890611c64565b80601f01602080910402602001604051908101604052809291908181526020018280546104a490611c64565b80156104f15780601f106104c6576101008083540402835291602001916104f1565b820191906000526020600020905b8154815290600101906020018083116104d457829003601f168201915b5050505050905090565b6000818152600260205260408120546001600160a01b03166105795760405162461bcd60e51b815260206004820152602c60248201527f4552433732313a20617070726f76656420717565727920666f72206e6f6e657860448201526b34b9ba32b73a103a37b5b2b760a11b60648201526084015b60405180910390fd5b506000908152600460205260409020546001600160a01b031690565b60006105a0826108e0565b9050806001600160a01b0316836001600160a01b0316141561060e5760405162461bcd60e51b815260206004820152602160248201527f4552433732313a20617070726f76616c20746f2063757272656e74206f776e656044820152603960f91b6064820152608401610570565b336001600160a01b038216148061062a575061062a81336103e7565b61069c5760405162461bcd60e51b815260206004820152603860248201527f4552433732313a20617070726f76652063616c6c6572206973206e6f74206f7760448201527f6e6572206e6f7220617070726f76656420666f7220616c6c00000000000000006064820152608401610570565b6106a68383610f5e565b505050565b600960205281600052604060002081815481106106c757600080fd5b9060005260206000209060030201600091509150508060000154908060010180546106f190611c64565b80601f016020809104026020016040519081016040528092919081815260200182805461071d90611c64565b801561076a5780601f1061073f5761010080835404028352916020019161076a565b820191906000526020600020905b81548152906001019060200180831161074d57829003601f168201915b505050600290930154919250506001600160a01b031683565b61078d3382610fcc565b6107a95760405162461bcd60e51b815260040161057090611b73565b6106a68383836110c3565b60606008805480602002602001604051908101604052809291908181526020016000905b828210156108bc57838290600052602060002090600302016040518060600160405290816000820154815260200160018201805461081590611c64565b80601f016020809104026020016040519081016040528092919081815260200182805461084190611c64565b801561088e5780601f106108635761010080835404028352916020019161088e565b820191906000526020600020905b81548152906001019060200180831161087157829003601f168201915b5050509183525050600291909101546001600160a01b031660209182015290825260019290920191016107d8565b50505050905090565b6106a683838360405180602001604052806000815250610cf6565b6000818152600260205260408120546001600160a01b0316806104615760405162461bcd60e51b815260206004820152602960248201527f4552433732313a206f776e657220717565727920666f72206e6f6e657869737460448201526832b73a103a37b5b2b760b91b6064820152608401610570565b60006001600160a01b0382166109c25760405162461bcd60e51b815260206004820152602a60248201527f4552433732313a2062616c616e636520717565727920666f7220746865207a65604482015269726f206164647265737360b01b6064820152608401610570565b506001600160a01b031660009081526003602052604090205490565b60606001805461047890611c64565b600a82826040516109ff929190611a09565b9081526040519081900360200190205460ff1615610a565760405162461bcd60e51b8152602060048201526014602482015273436f6c6f7220616c72656164792065786973747360601b6044820152606401610570565b610a6233600654611263565b60086040518060600160405280600654815260200184848080601f01602080910402602001604051908101604052809392919081815260200183838082843760009201829052509385525050336020938401525083546001818101865594825290829020835160039092020190815582820151805193949193610aed93928501929190910190611651565b5060409182015160029190910180546001600160a01b0319166001600160a01b039092169190911790553360009081526009602090815290829020825160608101845260065481528351601f8601849004840281018401909452848452909290918281019190869086908190840183828082843760009201829052509385525050336020938401525083546001818101865594825290829020835160039092020190815582820151805193949193610bad93928501929190910190611651565b5060409182015160029190910180546001600160a01b0319166001600160a01b0390921691909117905551600190600a90610beb9085908590611a09565b908152604051908190036020019020805491151560ff1990921691909117905560068054906000610c1b83611c9f565b91905055505050565b6001600160a01b038216331415610c7d5760405162461bcd60e51b815260206004820152601960248201527f4552433732313a20617070726f766520746f2063616c6c6572000000000000006044820152606401610570565b3360008181526005602090815260408083206001600160a01b0387168085529252909120805460ff1916841515179055906001600160a01b03167f17307eab39ab6107e8899845ad3d59bd9653f200f220920489ca2b5937696c3183604051610cea911515815260200190565b60405180910390a35050565b610d003383610fcc565b610d1c5760405162461bcd60e51b815260040161057090611b73565b610d2884848484611281565b50505050565b6000818152600260205260409020546060906001600160a01b0316610dad5760405162461bcd60e51b815260206004820152602f60248201527f4552433732314d657461646174613a2055524920717565727920666f72206e6f60448201526e3732bc34b9ba32b73a103a37b5b2b760891b6064820152608401610570565b6000610dc460408051602081019091526000815290565b90506000815111610de45760405180602001604052806000815250610e0f565b80610dee846112b4565b604051602001610dff929190611a19565b6040516020818303038152906040525b9392505050565b336000908152600960209081526040808320805482518185028101850190935280835260609492939192909184015b828210156108bc578382906000526020600020906003020160405180606001604052908160008201548152602001600182018054610e8290611c64565b80601f0160208091040260200160405190810160405280929190818152602001828054610eae90611c64565b8015610efb5780601f10610ed057610100808354040283529160200191610efb565b820191906000526020600020905b815481529060010190602001808311610ede57829003601f168201915b5050509183525050600291909101546001600160a01b03166020918201529082526001929092019101610e45565b60088181548110610f3957600080fd5b600091825260209091206003909102018054600182018054919350906106f190611c64565b600081815260046020526040902080546001600160a01b0319166001600160a01b0384169081179091558190610f93826108e0565b6001600160a01b03167f8c5be1e5ebec7d5bd14f71427d1e84f3dd0314c0f7b2291e5b200ac8c7c3b92560405160405180910390a45050565b6000818152600260205260408120546001600160a01b03166110455760405162461bcd60e51b815260206004820152602c60248201527f4552433732313a206f70657261746f7220717565727920666f72206e6f6e657860448201526b34b9ba32b73a103a37b5b2b760a11b6064820152608401610570565b6000611050836108e0565b9050806001600160a01b0316846001600160a01b0316148061108b5750836001600160a01b0316611080846104fb565b6001600160a01b0316145b806110bb57506001600160a01b0380821660009081526005602090815260408083209388168352929052205460ff165b949350505050565b826001600160a01b03166110d6826108e0565b6001600160a01b03161461113e5760405162461bcd60e51b815260206004820152602960248201527f4552433732313a207472616e73666572206f6620746f6b656e2074686174206960448201526839903737ba1037bbb760b91b6064820152608401610570565b6001600160a01b0382166111a05760405162461bcd60e51b8152602060048201526024808201527f4552433732313a207472616e7366657220746f20746865207a65726f206164646044820152637265737360e01b6064820152608401610570565b6111ab600082610f5e565b6001600160a01b03831660009081526003602052604081208054600192906111d4908490611c21565b90915550506001600160a01b0382166000908152600360205260408120805460019290611202908490611bf5565b909155505060008181526002602052604080822080546001600160a01b0319166001600160a01b0386811691821790925591518493918716917fddf252ad1be2c89b69c2b068fc378daa952ba7f163c4a11628f55a4df523b3ef91a4505050565b61127d8282604051806020016040528060008152506113cf565b5050565b61128c8484846110c3565b61129884848484611402565b610d285760405162461bcd60e51b815260040161057090611b21565b6060816112d957506040805180820190915260018152600360fc1b6020820152610464565b8160005b811561130357806112ed81611c9f565b91506112fc9050600a83611c0d565b91506112dd565b60008167ffffffffffffffff81111561132c57634e487b7160e01b600052604160045260246000fd5b6040519080825280601f01601f191660200182016040528015611356576020820181803683370190505b5090505b84156110bb5761136b600183611c21565b9150611378600a86611cba565b611383906030611bf5565b60f81b8183815181106113a657634e487b7160e01b600052603260045260246000fd5b60200101906001600160f81b031916908160001a9053506113c8600a86611c0d565b945061135a565b6113d9838361150f565b6113e66000848484611402565b6106a65760405162461bcd60e51b815260040161057090611b21565b60006001600160a01b0384163b1561150457604051630a85bd0160e11b81526001600160a01b0385169063150b7a0290611446903390899088908890600401611a48565b602060405180830381600087803b15801561146057600080fd5b505af1925050508015611490575060408051601f3d908101601f1916820190925261148d918101906118f6565b60015b6114ea573d8080156114be576040519150601f19603f3d011682016040523d82523d6000602084013e6114c3565b606091505b5080516114e25760405162461bcd60e51b815260040161057090611b21565b805181602001fd5b6001600160e01b031916630a85bd0160e11b1490506110bb565b506001949350505050565b6001600160a01b0382166115655760405162461bcd60e51b815260206004820181905260248201527f4552433732313a206d696e7420746f20746865207a65726f20616464726573736044820152606401610570565b6000818152600260205260409020546001600160a01b0316156115ca5760405162461bcd60e51b815260206004820152601c60248201527f4552433732313a20746f6b656e20616c7265616479206d696e746564000000006044820152606401610570565b6001600160a01b03821660009081526003602052604081208054600192906115f3908490611bf5565b909155505060008181526002602052604080822080546001600160a01b0319166001600160a01b03861690811790915590518392907fddf252ad1be2c89b69c2b068fc378daa952ba7f163c4a11628f55a4df523b3ef908290a45050565b82805461165d90611c64565b90600052602060002090601f01602090048101928261167f57600085556116c5565b82601f1061169857805160ff19168380011785556116c5565b828001600101855582156116c5579182015b828111156116c55782518255916020019190600101906116aa565b506116d19291506116d5565b5090565b5b808211156116d157600081556001016116d6565b600067ffffffffffffffff8084111561170557611705611cfa565b604051601f8501601f19908116603f0116810190828211818310171561172d5761172d611cfa565b8160405280935085815286868601111561174657600080fd5b858560208301376000602087830101525050509392505050565b80356001600160a01b038116811461046457600080fd5b600060208284031215611788578081fd5b610e0f82611760565b600080604083850312156117a3578081fd5b6117ac83611760565b91506117ba60208401611760565b90509250929050565b6000806000606084860312156117d7578081fd5b6117e084611760565b92506117ee60208501611760565b9150604084013590509250925092565b60008060008060808587031215611813578081fd5b61181c85611760565b935061182a60208601611760565b925060408501359150606085013567ffffffffffffffff81111561184c578182fd5b8501601f8101871361185c578182fd5b61186b878235602084016116ea565b91505092959194509250565b60008060408385031215611889578182fd5b61189283611760565b9150602083013580151581146118a6578182fd5b809150509250929050565b600080604083850312156118c3578182fd5b6118cc83611760565b946020939093013593505050565b6000602082840312156118eb578081fd5b8135610e0f81611d10565b600060208284031215611907578081fd5b8151610e0f81611d10565b60008060208385031215611924578182fd5b823567ffffffffffffffff8082111561193b578384fd5b818501915085601f83011261194e578384fd5b81358181111561195c578485fd5b86602082850101111561196d578485fd5b60209290920196919550909350505050565b600060208284031215611990578081fd5b813567ffffffffffffffff8111156119a6578182fd5b8201601f810184136119b6578182fd5b6110bb848235602084016116ea565b6000602082840312156119d6578081fd5b5035919050565b600081518084526119f5816020860160208601611c38565b601f01601f19169290920160200192915050565b6000828483379101908152919050565b60008351611a2b818460208801611c38565b835190830190611a3f818360208801611c38565b01949350505050565b6001600160a01b0385811682528416602082015260408101839052608060608201819052600090611a7b908301846119dd565b9695505050505050565b60006020808301818452808551808352604092508286019150828160051b870101848801865b83811015611b0057603f19898403018552815160608151855288820151818a870152611ad9828701826119dd565b928901516001600160a01b0316958901959095525094870194925090860190600101611aab565b509098975050505050505050565b600060208252610e0f60208301846119dd565b60208082526032908201527f4552433732313a207472616e7366657220746f206e6f6e20455243373231526560408201527131b2b4bb32b91034b6b83632b6b2b73a32b960711b606082015260800190565b60208082526031908201527f4552433732313a207472616e736665722063616c6c6572206973206e6f74206f6040820152701ddb995c881b9bdc88185c1c1c9bdd9959607a1b606082015260800190565b600084825260606020830152611bdd60608301856119dd565b905060018060a01b0383166040830152949350505050565b60008219821115611c0857611c08611cce565b500190565b600082611c1c57611c1c611ce4565b500490565b600082821015611c3357611c33611cce565b500390565b60005b83811015611c53578181015183820152602001611c3b565b83811115610d285750506000910152565b600181811c90821680611c7857607f821691505b60208210811415611c9957634e487b7160e01b600052602260045260246000fd5b50919050565b6000600019821415611cb357611cb3611cce565b5060010190565b600082611cc957611cc9611ce4565b500690565b634e487b7160e01b600052601160045260246000fd5b634e487b7160e01b600052601260045260246000fd5b634e487b7160e01b600052604160045260246000fd5b6001600160e01b031981168114611d2657600080fd5b5056fea264697066735822122011e1f5e0b449a0a28714f42b95b823f29a2eb12254cbd3b40a8a35fb5dcc856d64736f6c63430008030033",
  "linkReferences": {},
  "deployedLinkReferences": {}
}